{
  "address": "0x05A99E0875cEB6F1cD8Aa7497a7866BdE257d2C9",
  "abi": [
    {
      "anonymous": false,
      "inputs": [
        {
          "indexed": true,
          "internalType": "uint256",
          "name": "platformId",
          "type": "uint256"
        },
        {
          "indexed": true,
          "internalType": "uint256",
          "name": "pollId",
          "type": "uint256"
        }
      ],
      "name": "Finalized",
      "type": "event"
    },
    {
      "anonymous": false,
      "inputs": [
        {
          "indexed": true,
          "internalType": "uint256",
          "name": "platformId",
          "type": "uint256"
        },
        {
          "indexed": true,
          "internalType": "address",
          "name": "account",
          "type": "address"
        }
      ],
      "name": "JoinedPlatform",
      "type": "event"
    },
    {
      "anonymous": false,
      "inputs": [
        {
          "indexed": true,
          "internalType": "uint256",
          "name": "platformId",
          "type": "uint256"
        },
        {
          "indexed": false,
          "internalType": "string",
          "name": "name",
          "type": "string"
        },
        {
          "indexed": false,
          "internalType": "uint256",
          "name": "memberLimit",
          "type": "uint256"
        }
      ],
      "name": "PlatformCreated",
      "type": "event"
    },
    {
      "anonymous": false,
      "inputs": [
        {
          "indexed": true,
          "internalType": "uint256",
          "name": "platformId",
          "type": "uint256"
        },
        {
          "indexed": true,
          "internalType": "uint256",
          "name": "pollId",
          "type": "uint256"
        },
        {
          "indexed": false,
          "internalType": "string",
          "name": "title",
          "type": "string"
        },
        {
          "indexed": false,
          "internalType": "string[]",
          "name": "options",
          "type": "string[]"
        }
      ],
      "name": "PollCreated",
      "type": "event"
    },
    {
      "anonymous": false,
      "inputs": [
        {
          "indexed": true,
          "internalType": "uint256",
          "name": "platformId",
          "type": "uint256"
        },
        {
          "indexed": true,
          "internalType": "uint256",
          "name": "pollId",
          "type": "uint256"
        },
        {
          "indexed": true,
          "internalType": "address",
          "name": "voter",
          "type": "address"
        },
        {
          "indexed": false,
          "internalType": "uint256",
          "name": "optionIndex",
          "type": "uint256"
        }
      ],
      "name": "Voted",
      "type": "event"
    },
    {
      "inputs": [
        {
          "internalType": "string",
          "name": "name",
          "type": "string"
        },
        {
          "internalType": "uint256",
          "name": "memberLimit",
          "type": "uint256"
        }
      ],
      "name": "createPlatform",
      "outputs": [
        {
          "internalType": "uint256",
          "name": "platformId",
          "type": "uint256"
        }
      ],
      "stateMutability": "nonpayable",
      "type": "function"
    },
    {
      "inputs": [
        {
          "internalType": "uint256",
          "name": "platformId",
          "type": "uint256"
        },
        {
          "internalType": "string",
          "name": "title",
          "type": "string"
        },
        {
          "internalType": "string[]",
          "name": "options",
          "type": "string[]"
        }
      ],
      "name": "createPoll",
      "outputs": [
        {
          "internalType": "uint256",
          "name": "pollId",
          "type": "uint256"
        }
      ],
      "stateMutability": "nonpayable",
      "type": "function"
    },
    {
      "inputs": [
        {
          "internalType": "uint256",
          "name": "platformId",
          "type": "uint256"
        },
        {
          "internalType": "uint256",
          "name": "pollId",
          "type": "uint256"
        }
      ],
      "name": "finalize",
      "outputs": [],
      "stateMutability": "nonpayable",
      "type": "function"
    },
    {
      "inputs": [],
      "name": "getAllPlatforms",
      "outputs": [
        {
          "internalType": "uint256[]",
          "name": "ids",
          "type": "uint256[]"
        },
        {
          "internalType": "string[]",
          "name": "names",
          "type": "string[]"
        },
        {
          "internalType": "uint256[]",
          "name": "limits",
          "type": "uint256[]"
        },
        {
          "internalType": "uint256[]",
          "name": "memberCounts",
          "type": "uint256[]"
        }
      ],
      "stateMutability": "view",
      "type": "function"
    },
    {
      "inputs": [
        {
          "internalType": "uint256",
          "name": "platformId",
          "type": "uint256"
        },
        {
          "internalType": "uint256",
          "name": "pollId",
          "type": "uint256"
        }
      ],
      "name": "getEncryptedCounts",
      "outputs": [
        {
          "internalType": "euint32[]",
          "name": "",
          "type": "bytes32[]"
        }
      ],
      "stateMutability": "view",
      "type": "function"
    },
    {
      "inputs": [
        {
          "internalType": "uint256",
          "name": "platformId",
          "type": "uint256"
        }
      ],
      "name": "getPlatform",
      "outputs": [
        {
          "internalType": "string",
          "name": "name",
          "type": "string"
        },
        {
          "internalType": "uint256",
          "name": "memberLimit",
          "type": "uint256"
        },
        {
          "internalType": "uint256",
          "name": "memberCount",
          "type": "uint256"
        }
      ],
      "stateMutability": "view",
      "type": "function"
    },
    {
      "inputs": [
        {
          "internalType": "uint256",
          "name": "platformId",
          "type": "uint256"
        }
      ],
      "name": "getPlatformMembers",
      "outputs": [
        {
          "internalType": "address[]",
          "name": "",
          "type": "address[]"
        }
      ],
      "stateMutability": "view",
      "type": "function"
    },
    {
      "inputs": [
        {
          "internalType": "uint256",
          "name": "platformId",
          "type": "uint256"
        },
        {
          "internalType": "uint256",
          "name": "pollId",
          "type": "uint256"
        }
      ],
      "name": "getPoll",
      "outputs": [
        {
          "internalType": "string",
          "name": "title",
          "type": "string"
        },
        {
          "internalType": "string[]",
          "name": "options",
          "type": "string[]"
        },
        {
          "internalType": "uint256",
          "name": "totalVoted",
          "type": "uint256"
        },
        {
          "internalType": "uint256",
          "name": "memberCountSnapshot",
          "type": "uint256"
        },
        {
          "internalType": "bool",
          "name": "finalized",
          "type": "bool"
        }
      ],
      "stateMutability": "view",
      "type": "function"
    },
    {
      "inputs": [
        {
          "internalType": "uint256",
          "name": "platformId",
          "type": "uint256"
        },
        {
          "internalType": "uint256",
          "name": "pollId",
          "type": "uint256"
        },
        {
          "internalType": "address",
          "name": "user",
          "type": "address"
        }
      ],
      "name": "hasUserVoted",
      "outputs": [
        {
          "internalType": "bool",
          "name": "",
          "type": "bool"
        }
      ],
      "stateMutability": "view",
      "type": "function"
    },
    {
      "inputs": [
        {
          "internalType": "uint256",
          "name": "platformId",
          "type": "uint256"
        },
        {
          "internalType": "address",
          "name": "account",
          "type": "address"
        }
      ],
      "name": "isPlatformMember",
      "outputs": [
        {
          "internalType": "bool",
          "name": "",
          "type": "bool"
        }
      ],
      "stateMutability": "view",
      "type": "function"
    },
    {
      "inputs": [
        {
          "internalType": "uint256",
          "name": "platformId",
          "type": "uint256"
        }
      ],
      "name": "joinPlatform",
      "outputs": [],
      "stateMutability": "nonpayable",
      "type": "function"
    },
    {
      "inputs": [],
      "name": "nextPlatformId",
      "outputs": [
        {
          "internalType": "uint256",
          "name": "",
          "type": "uint256"
        }
      ],
      "stateMutability": "view",
      "type": "function"
    },
    {
      "inputs": [],
      "name": "protocolId",
      "outputs": [
        {
          "internalType": "uint256",
          "name": "",
          "type": "uint256"
        }
      ],
      "stateMutability": "pure",
      "type": "function"
    },
    {
      "inputs": [
        {
          "internalType": "uint256",
          "name": "platformId",
          "type": "uint256"
        },
        {
          "internalType": "uint256",
          "name": "pollId",
          "type": "uint256"
        },
        {
          "internalType": "uint256",
          "name": "optionIndex",
          "type": "uint256"
        },
        {
          "internalType": "externalEuint32",
          "name": "oneEncrypted",
          "type": "bytes32"
        },
        {
          "internalType": "bytes",
          "name": "inputProof",
          "type": "bytes"
        }
      ],
      "name": "vote",
      "outputs": [],
      "stateMutability": "nonpayable",
      "type": "function"
    }
  ],
  "transactionHash": "0xb0e7bc4a09ac46701cb9efb66b8d1e63edbae6f37f7a83812b28603e615736a0",
  "args": [],
  "numDeployments": 1,
  "solcInputHash": "4dfff44da4882aa7ab20ad2c22e408b3",
  "bytecode": "0x608060405234801561000f575f5ffd5b5061018a6100ae604080516080810182525f808252602082018190529181018290526060810191909152506040805160808101825273687820221192c5b662b25367f70076a37bc79b6c815273848b0066793bcc60346da1f49049357399b8d595602082015273a02cda4ca3a71d7c46997716f4283aa851c2881291810191909152731364cbbf2cdf5032c47d8226a6f6fbd2afcdacac606082015290565b80517f9e7b61f58c47dc699ac88507c4f5bb9f121c03808c5676a8078fe583e464970080546001600160a01b03199081166001600160a01b039384161790915560208301517f9e7b61f58c47dc699ac88507c4f5bb9f121c03808c5676a8078fe583e46497018054831691841691909117905560408301517f9e7b61f58c47dc699ac88507c4f5bb9f121c03808c5676a8078fe583e46497028054831691841691909117905560608301517f9e7b61f58c47dc699ac88507c4f5bb9f121c03808c5676a8078fe583e46497038054909216921691909117905550565b61220d806101975f395ff3fe608060405234801561000f575f5ffd5b50600436106100e5575f3560e01c80638a67f8d511610088578063bdc4603411610063578063bdc46034146101ee578063d213da101461020e578063da1f12ab14610226578063dcb25b1d1461022e575f5ffd5b80638a67f8d5146101a8578063b2179505146101c8578063b6013cef146101db575f5ffd5b806351f5ec1e116100c357806351f5ec1e146101375780635bd22c981461015a5780636ad2af6d1461017c5780637f204032146101a0575f5ffd5b80630c9ef9a2146100e95780633d5ea5ec1461010f57806340c868c214610124575b5f5ffd5b6100fc6100f7366004611a88565b610241565b6040519081526020015b60405180910390f35b61012261011d366004611b2f565b6104a4565b005b610122610132366004611b46565b610641565b61014a610145366004611bc6565b610978565b6040519015158152602001610106565b61016d610168366004611b2f565b610a50565b60405161010693929190611c26565b61018f61018a366004611c4a565b610b5c565b604051610106959493929190611cc4565b6100fc5f5481565b6101bb6101b6366004611c4a565b610da6565b6040516101069190611d08565b6100fc6101d6366004611d4a565b610f59565b6101226101e9366004611c4a565b6110a3565b6102016101fc366004611b2f565b6112c1565b6040516101069190611d92565b610216611387565b6040516101069493929190611e0c565b6127116100fc565b61014a61023c366004611e63565b61160a565b5f8581526001602052604081208054819061025b90611e8d565b90505f036102a55760405162461bcd60e51b8152602060048201526012602482015271141b185d199bdc9b481b9bdd08199bdd5b9960721b60448201526064015b60405180910390fd5b335f90815260038201602052604090205460ff166102f35760405162461bcd60e51b815260206004820152600b60248201526a27b7363c9036b2b6b132b960a91b604482015260640161029c565b846103405760405162461bcd60e51b815260206004820152600d60248201527f496e76616c6964207469746c6500000000000000000000000000000000000000604482015260640161029c565b60028310156103915760405162461bcd60e51b815260206004820152601260248201527f4174206c656173742032206f7074696f6e730000000000000000000000000000604482015260640161029c565b600481018054905f6103a283611ed9565b909155505f8181526005830160205260409020909250806103c4878983611f51565b50600282015460048201555f5b8481101561045957816001018686838181106103ef576103ef61200b565b9050602002810190610401919061201f565b82546001810184555f9384526020909320909201916104209183611f51565b505f61042b5f61168f565b6002840180546001810182555f918252602090912001819055905061044f816116a1565b50506001016103d1565b5082887f2db36e87bc3e3fe2203190e012260d989ca4d5927f9d191814ff24b68b95886189898989604051610491949392919061208a565b60405180910390a3505095945050505050565b5f818152600160205260409020805481906104be90611e8d565b90505f036105035760405162461bcd60e51b8152602060048201526012602482015271141b185d199bdc9b481b9bdd08199bdd5b9960721b604482015260640161029c565b335f90815260038201602052604090205460ff16156105645760405162461bcd60e51b815260206004820152601060248201527f416c72656164792061206d656d62657200000000000000000000000000000000604482015260640161029c565b60018101546002820154106105bb5760405162461bcd60e51b815260206004820152601060248201527f506c6174666f726d2069732066756c6c00000000000000000000000000000000604482015260640161029c565b335f8181526003830160209081526040808320805460ff191660019081179091556002860180549182018155845291832090910180547fffffffffffffffffffffffff000000000000000000000000000000000000000016841790555184917fc33050fe5bc8543b15b42bc4e58f809d807c53c43e01831cbb9450ced39f1b3d91a35050565b5f8681526001602052604090208054819061065b90611e8d565b90505f036106a05760405162461bcd60e51b8152602060048201526012602482015271141b185d199bdc9b481b9bdd08199bdd5b9960721b604482015260640161029c565b335f90815260038201602052604090205460ff166106ee5760405162461bcd60e51b815260206004820152600b60248201526a27b7363c9036b2b6b132b960a91b604482015260640161029c565b806004015486106107325760405162461bcd60e51b815260206004820152600e60248201526d141bdb1b081b9bdd08199bdd5b9960921b604482015260640161029c565b5f868152600580830160205260409091209081015460ff16156107975760405162461bcd60e51b815260206004820152600e60248201527f506f6c6c2066696e616c697a6564000000000000000000000000000000000000604482015260640161029c565b335f90815260068201602052604090205460ff16156107f85760405162461bcd60e51b815260206004820152600d60248201527f416c726561647920766f74656400000000000000000000000000000000000000604482015260640161029c565b6001810154861061084b5760405162461bcd60e51b815260206004820152600e60248201527f496e76616c6964206f7074696f6e000000000000000000000000000000000000604482015260640161029c565b5f61088b8686868080601f0160208091040260200160405190810160405280939291908181526020018383808284375f920191909152506116b092505050565b90506108b48260020188815481106108a5576108a561200b565b905f5260205f200154826116bd565b8260020188815481106108c9576108c961200b565b905f5260205f2001819055506108fb8260020188815481106108ed576108ed61200b565b905f5260205f2001546116a1565b50335f9081526006830160205260408120805460ff191660019081179091556003840180549192909161092f908490612140565b9091555050604051878152339089908b907f41df84b3b467b06744e40c92613c666324e7c640ce0a41ec06efdf602d3676069060200160405180910390a4505050505050505050565b5f8381526001602052604081208054819061099290611e8d565b90505f036109d75760405162461bcd60e51b8152602060048201526012602482015271141b185d199bdc9b481b9bdd08199bdd5b9960721b604482015260640161029c565b80600401548410610a1b5760405162461bcd60e51b815260206004820152600e60248201526d141bdb1b081b9bdd08199bdd5b9960921b604482015260640161029c565b5f8481526005909101602090815260408083206001600160a01b038616845260060190915290205460ff1690505b9392505050565b5f81815260016020526040812080546060929182918190610a7090611e8d565b90505f03610ab55760405162461bcd60e51b8152602060048201526012602482015271141b185d199bdc9b481b9bdd08199bdd5b9960721b604482015260640161029c565b600181015460028201548254839291908390610ad090611e8d565b80601f0160208091040260200160405190810160405280929190818152602001828054610afc90611e8d565b8015610b475780601f10610b1e57610100808354040283529160200191610b47565b820191905f5260205f20905b815481529060010190602001808311610b2a57829003601f168201915b50505050509250935093509350509193909250565b5f828152600160205260408120805460609283929091829182918190610b8190611e8d565b90505f03610bc65760405162461bcd60e51b8152602060048201526012602482015271141b185d199bdc9b481b9bdd08199bdd5b9960721b604482015260640161029c565b80600401548710610c0a5760405162461bcd60e51b815260206004820152600e60248201526d141bdb1b081b9bdd08199bdd5b9960921b604482015260640161029c565b5f87815260058083016020526040909120600381015460048201549282015482549293849360018501939260ff16908590610c4490611e8d565b80601f0160208091040260200160405190810160405280929190818152602001828054610c7090611e8d565b8015610cbb5780601f10610c9257610100808354040283529160200191610cbb565b820191905f5260205f20905b815481529060010190602001808311610c9e57829003601f168201915b5050505050945083805480602002602001604051908101604052809291908181526020015f905b82821015610d8a578382905f5260205f20018054610cff90611e8d565b80601f0160208091040260200160405190810160405280929190818152602001828054610d2b90611e8d565b8015610d765780601f10610d4d57610100808354040283529160200191610d76565b820191905f5260205f20905b815481529060010190602001808311610d5957829003601f168201915b505050505081526020019060010190610ce2565b5050505093509650965096509650965050509295509295909350565b5f8281526001602052604090208054606091908190610dc490611e8d565b90505f03610e095760405162461bcd60e51b8152602060048201526012602482015271141b185d199bdc9b481b9bdd08199bdd5b9960721b604482015260640161029c565b80600401548310610e4d5760405162461bcd60e51b815260206004820152600e60248201526d141bdb1b081b9bdd08199bdd5b9960921b604482015260640161029c565b5f838152600580830160205260409091209081015460ff16610eb15760405162461bcd60e51b815260206004820152600d60248201527f4e6f742066696e616c697a656400000000000000000000000000000000000000604482015260640161029c565b60028101545f9067ffffffffffffffff811115610ed057610ed0611ef1565b604051908082528060200260200182016040528015610ef9578160200160208202803683370190505b5090505f5b6002830154811015610f4d57826002018181548110610f1f57610f1f61200b565b905f5260205f200154828281518110610f3a57610f3a61200b565b6020908102919091010152600101610efe565b50925050505b92915050565b5f82610fa75760405162461bcd60e51b815260206004820152600c60248201527f496e76616c6964206e616d650000000000000000000000000000000000000000604482015260640161029c565b5f8211610ff65760405162461bcd60e51b815260206004820152601460248201527f496e76616c6964206d656d626572206c696d6974000000000000000000000000604482015260640161029c565b5f5f815461100390611ed9565b91829055505f81815260016020526040902090915080611024858783611f51565b5060018082018490556002805491820181555f527f405787fa12a823e0f2b7631cc41b3ba8828b3321ca811111fa75cd3aa3bb5ace0182905560405182907f1ae55f40373f0a4c959b604ffb520546f89043427c85198373ba0624a8badb319061109390889088908890612153565b60405180910390a2509392505050565b5f828152600160205260409020805481906110bd90611e8d565b90505f036111025760405162461bcd60e51b8152602060048201526012602482015271141b185d199bdc9b481b9bdd08199bdd5b9960721b604482015260640161029c565b806004015482106111465760405162461bcd60e51b815260206004820152600e60248201526d141bdb1b081b9bdd08199bdd5b9960921b604482015260640161029c565b5f828152600580830160205260409091209081015460ff16156111ab5760405162461bcd60e51b815260206004820152601160248201527f416c72656164792066696e616c697a6564000000000000000000000000000000604482015260640161029c565b80600401548160030154146112025760405162461bcd60e51b815260206004820152600d60248201527f4e6f7420616c6c20766f74656400000000000000000000000000000000000000604482015260640161029c565b5f5b600282015481101561127f575f5b60028401548110156112765761126d8360020183815481106112365761123661200b565b905f5260205f2001548560020183815481106112545761125461200b565b5f918252602090912001546001600160a01b03166116eb565b50600101611212565b50600101611204565b5060058101805460ff19166001179055604051839085907fb968440accd1ce5fa60b00de8bb8d8487eb2fda3c3701fb30fea3f69aa910a48905f90a350505050565b5f81815260016020526040902080546060919081906112df90611e8d565b90505f036113245760405162461bcd60e51b8152602060048201526012602482015271141b185d199bdc9b481b9bdd08199bdd5b9960721b604482015260640161029c565b8060020180548060200260200160405190810160405280929190818152602001828054801561137a57602002820191905f5260205f20905b81546001600160a01b0316815260019091019060200180831161135c575b5050505050915050919050565b6002546060908190819081908067ffffffffffffffff8111156113ac576113ac611ef1565b6040519080825280602002602001820160405280156113d5578160200160208202803683370190505b5094508067ffffffffffffffff8111156113f1576113f1611ef1565b60405190808252806020026020018201604052801561142457816020015b606081526020019060019003908161140f5790505b5093508067ffffffffffffffff81111561144057611440611ef1565b604051908082528060200260200182016040528015611469578160200160208202803683370190505b5092508067ffffffffffffffff81111561148557611485611ef1565b6040519080825280602002602001820160405280156114ae578160200160208202803683370190505b5091505f5b81811015611602575f600282815481106114cf576114cf61200b565b905f5260205f20015490505f60015f8381526020019081526020015f209050818884815181106115015761150161200b565b60209081029190910101528054819061151990611e8d565b80601f016020809104026020016040519081016040528092919081815260200182805461154590611e8d565b80156115905780601f1061156757610100808354040283529160200191611590565b820191905f5260205f20905b81548152906001019060200180831161157357829003601f168201915b50505050508784815181106115a7576115a761200b565b602002602001018190525080600101548684815181106115c9576115c961200b565b6020908102919091010152600281015485518690859081106115ed576115ed61200b565b602090810291909101015250506001016114b3565b505090919293565b5f8281526001602052604081208054819061162490611e8d565b90505f036116695760405162461bcd60e51b8152602060048201526012602482015271141b185d199bdc9b481b9bdd08199bdd5b9960721b604482015260640161029c565b6001600160a01b0383165f9081526003909101602052604090205460ff16905092915050565b5f610f538263ffffffff1660046116fd565b5f6116ac82306117ba565b5090565b5f610a4983836004611843565b5f826116cf576116cc5f61168f565b92505b816116e0576116dd5f61168f565b91505b610a4983835f611963565b5f6116f683836117ba565b5090919050565b7f9e7b61f58c47dc699ac88507c4f5bb9f121c03808c5676a8078fe583e464970154604051639cd07acb60e01b81525f917f9e7b61f58c47dc699ac88507c4f5bb9f121c03808c5676a8078fe583e4649700916001600160a01b0390911690639cd07acb906117729087908790600401612196565b6020604051808303815f875af115801561178e573d5f5f3e3d5ffd5b505050506040513d601f19601f820116820180604052508101906117b291906121aa565b949350505050565b5f7f9e7b61f58c47dc699ac88507c4f5bb9f121c03808c5676a8078fe583e46497008054604051635ca4b5b160e11b8152600481018690526001600160a01b03858116602483015292935091169063b9496b62906044015f604051808303815f87803b158015611828575f5ffd5b505af115801561183a573d5f5f3e3d5ffd5b50505050505050565b7f9e7b61f58c47dc699ac88507c4f5bb9f121c03808c5676a8078fe583e46497015460405163196d0b9b60e01b81525f917f9e7b61f58c47dc699ac88507c4f5bb9f121c03808c5676a8078fe583e4649700916001600160a01b039091169063196d0b9b906118bc9088903390899089906004016121c1565b6020604051808303815f875af11580156118d8573d5f5f3e3d5ffd5b505050506040513d601f19601f820116820180604052508101906118fc91906121aa565b8154604051630f8e573b60e21b8152600481018390523360248201529193506001600160a01b031690633e395cec906044015f604051808303815f87803b158015611945575f5ffd5b505af1158015611957573d5f5f3e3d5ffd5b50505050509392505050565b5f5f82156119765750600160f81b611979565b505f5b5f7f9e7b61f58c47dc699ac88507c4f5bb9f121c03808c5676a8078fe583e4649700600181015460405163022f65e760e31b815260048101899052602481018890527fff00000000000000000000000000000000000000000000000000000000000000851660448201529192506001600160a01b03169063117b2f38906064016020604051808303815f875af1158015611a15573d5f5f3e3d5ffd5b505050506040513d601f19601f82011682018060405250810190611a3991906121aa565b9695505050505050565b5f5f83601f840112611a53575f5ffd5b50813567ffffffffffffffff811115611a6a575f5ffd5b602083019150836020828501011115611a81575f5ffd5b9250929050565b5f5f5f5f5f60608688031215611a9c575f5ffd5b85359450602086013567ffffffffffffffff811115611ab9575f5ffd5b611ac588828901611a43565b909550935050604086013567ffffffffffffffff811115611ae4575f5ffd5b8601601f81018813611af4575f5ffd5b803567ffffffffffffffff811115611b0a575f5ffd5b8860208260051b8401011115611b1e575f5ffd5b959894975092955050506020019190565b5f60208284031215611b3f575f5ffd5b5035919050565b5f5f5f5f5f5f60a08789031215611b5b575f5ffd5b86359550602087013594506040870135935060608701359250608087013567ffffffffffffffff811115611b8d575f5ffd5b611b9989828a01611a43565b979a9699509497509295939492505050565b80356001600160a01b0381168114611bc1575f5ffd5b919050565b5f5f5f60608486031215611bd8575f5ffd5b8335925060208401359150611bef60408501611bab565b90509250925092565b5f81518084528060208401602086015e5f602082860101526020601f19601f83011685010191505092915050565b606081525f611c386060830186611bf8565b60208301949094525060400152919050565b5f5f60408385031215611c5b575f5ffd5b50508035926020909101359150565b5f82825180855260208501945060208160051b830101602085015f5b83811015611cb857601f19858403018852611ca2838351611bf8565b6020988901989093509190910190600101611c86565b50909695505050505050565b60a081525f611cd660a0830188611bf8565b8281036020840152611ce88188611c6a565b604084019690965250506060810192909252151560809091015292915050565b602080825282518282018190525f918401906040840190835b81811015611d3f578351835260209384019390920191600101611d21565b509095945050505050565b5f5f5f60408486031215611d5c575f5ffd5b833567ffffffffffffffff811115611d72575f5ffd5b611d7e86828701611a43565b909790965060209590950135949350505050565b602080825282518282018190525f918401906040840190835b81811015611d3f5783516001600160a01b0316835260209384019390920191600101611dab565b5f8151808452602084019350602083015f5b82811015611e02578151865260209586019590910190600101611de4565b5093949350505050565b608081525f611e1e6080830187611dd2565b8281036020840152611e308187611c6a565b90508281036040840152611e448186611dd2565b90508281036060840152611e588185611dd2565b979650505050505050565b5f5f60408385031215611e74575f5ffd5b82359150611e8460208401611bab565b90509250929050565b600181811c90821680611ea157607f821691505b602082108103611ebf57634e487b7160e01b5f52602260045260245ffd5b50919050565b634e487b7160e01b5f52601160045260245ffd5b5f60018201611eea57611eea611ec5565b5060010190565b634e487b7160e01b5f52604160045260245ffd5b601f821115611f4c57805f5260205f20601f840160051c81016020851015611f2a5750805b601f840160051c820191505b81811015611f49575f8155600101611f36565b50505b505050565b67ffffffffffffffff831115611f6957611f69611ef1565b611f7d83611f778354611e8d565b83611f05565b5f601f841160018114611fae575f8515611f975750838201355b5f19600387901b1c1916600186901b178355611f49565b5f83815260208120601f198716915b82811015611fdd5786850135825560209485019460019092019101611fbd565b5086821015611ff9575f1960f88860031b161c19848701351681555b505060018560011b0183555050505050565b634e487b7160e01b5f52603260045260245ffd5b5f5f8335601e19843603018112612034575f5ffd5b83018035915067ffffffffffffffff82111561204e575f5ffd5b602001915036819003821315611a81575f5ffd5b81835281816020850137505f828201602090810191909152601f909101601f19169091010190565b604081525f61209d604083018688612062565b82810360208401528084825260208201905060208560051b830101865f601e19893603015b8882101561213057858403601f1901855282358181126120e0575f5ffd5b8a0160208101903567ffffffffffffffff8111156120fc575f5ffd5b80360382131561210a575f5ffd5b612115868284612062565b955050506020830192506020850194506001820191506120c2565b50919a9950505050505050505050565b80820180821115610f5357610f53611ec5565b604081525f612166604083018587612062565b9050826020830152949350505050565b6054811061219257634e487b7160e01b5f52602160045260245ffd5b9052565b82815260408101610a496020830184612176565b5f602082840312156121ba575f5ffd5b5051919050565b8481526001600160a01b0384166020820152608060408201525f6121e86080830185611bf8565b90506121f76060830184612176565b9594505050505056fea164736f6c634300081b000a",
  "devdoc": {
    "kind": "dev",
    "methods": {
      "vote(uint256,uint256,uint256,bytes32,bytes)": {
        "params": {
          "inputProof": "Zama",
          "oneEncrypted": "euint321",
          "optionIndex": "",
          "platformId": "ID",
          "pollId": "ID"
        }
      }
    },
    "title": "PlatformVoting -  Zama FHEVM ",
    "version": 1
  },
  "userdoc": {
    "kind": "user",
    "methods": {
      "createPlatform(string,uint256)": {
        "notice": ""
      },
      "createPoll(uint256,string,string[])": {
        "notice": ""
      },
      "finalize(uint256,uint256)": {
        "notice": ""
      },
      "getAllPlatforms()": {
        "notice": ""
      },
      "getEncryptedCounts(uint256,uint256)": {
        "notice": ""
      },
      "joinPlatform(uint256)": {
        "notice": ""
      },
      "vote(uint256,uint256,uint256,bytes32,bytes)": {
        "notice": "1"
      }
    },
    "notice": "",
    "version": 1
  },
  "storageLayout": {
    "storage": [
      {
        "astId": 39184,
        "contract": "contracts/vote.sol:PlatformVoting",
        "label": "nextPlatformId",
        "offset": 0,
        "slot": "0",
        "type": "t_uint256"
      },
      {
        "astId": 39189,
        "contract": "contracts/vote.sol:PlatformVoting",
        "label": "platforms",
        "offset": 0,
        "slot": "1",
        "type": "t_mapping(t_uint256,t_struct(Platform)39162_storage)"
      },
      {
        "astId": 39192,
        "contract": "contracts/vote.sol:PlatformVoting",
        "label": "platformIds",
        "offset": 0,
        "slot": "2",
        "type": "t_array(t_uint256)dyn_storage"
      }
    ],
    "types": {
      "t_address": {
        "encoding": "inplace",
        "label": "address",
        "numberOfBytes": "20"
      },
      "t_array(t_address)dyn_storage": {
        "base": "t_address",
        "encoding": "dynamic_array",
        "label": "address[]",
        "numberOfBytes": "32"
      },
      "t_array(t_string_storage)dyn_storage": {
        "base": "t_string_storage",
        "encoding": "dynamic_array",
        "label": "string[]",
        "numberOfBytes": "32"
      },
      "t_array(t_uint256)dyn_storage": {
        "base": "t_uint256",
        "encoding": "dynamic_array",
        "label": "uint256[]",
        "numberOfBytes": "32"
      },
      "t_array(t_userDefinedValueType(euint32)40194)dyn_storage": {
        "base": "t_userDefinedValueType(euint32)40194",
        "encoding": "dynamic_array",
        "label": "euint32[]",
        "numberOfBytes": "32"
      },
      "t_bool": {
        "encoding": "inplace",
        "label": "bool",
        "numberOfBytes": "1"
      },
      "t_mapping(t_address,t_bool)": {
        "encoding": "mapping",
        "key": "t_address",
        "label": "mapping(address => bool)",
        "numberOfBytes": "32",
        "value": "t_bool"
      },
      "t_mapping(t_uint256,t_struct(Platform)39162_storage)": {
        "encoding": "mapping",
        "key": "t_uint256",
        "label": "mapping(uint256 => struct PlatformVoting.Platform)",
        "numberOfBytes": "32",
        "value": "t_struct(Platform)39162_storage"
      },
      "t_mapping(t_uint256,t_struct(Poll)39182_storage)": {
        "encoding": "mapping",
        "key": "t_uint256",
        "label": "mapping(uint256 => struct PlatformVoting.Poll)",
        "numberOfBytes": "32",
        "value": "t_struct(Poll)39182_storage"
      },
      "t_string_storage": {
        "encoding": "bytes",
        "label": "string",
        "numberOfBytes": "32"
      },
      "t_struct(Platform)39162_storage": {
        "encoding": "inplace",
        "label": "struct PlatformVoting.Platform",
        "members": [
          {
            "astId": 39145,
            "contract": "contracts/vote.sol:PlatformVoting",
            "label": "name",
            "offset": 0,
            "slot": "0",
            "type": "t_string_storage"
          },
          {
            "astId": 39147,
            "contract": "contracts/vote.sol:PlatformVoting",
            "label": "memberLimit",
            "offset": 0,
            "slot": "1",
            "type": "t_uint256"
          },
          {
            "astId": 39150,
            "contract": "contracts/vote.sol:PlatformVoting",
            "label": "members",
            "offset": 0,
            "slot": "2",
            "type": "t_array(t_address)dyn_storage"
          },
          {
            "astId": 39154,
            "contract": "contracts/vote.sol:PlatformVoting",
            "label": "isMember",
            "offset": 0,
            "slot": "3",
            "type": "t_mapping(t_address,t_bool)"
          },
          {
            "astId": 39156,
            "contract": "contracts/vote.sol:PlatformVoting",
            "label": "nextPollId",
            "offset": 0,
            "slot": "4",
            "type": "t_uint256"
          },
          {
            "astId": 39161,
            "contract": "contracts/vote.sol:PlatformVoting",
            "label": "polls",
            "offset": 0,
            "slot": "5",
            "type": "t_mapping(t_uint256,t_struct(Poll)39182_storage)"
          }
        ],
        "numberOfBytes": "192"
      },
      "t_struct(Poll)39182_storage": {
        "encoding": "inplace",
        "label": "struct PlatformVoting.Poll",
        "members": [
          {
            "astId": 39164,
            "contract": "contracts/vote.sol:PlatformVoting",
            "label": "title",
            "offset": 0,
            "slot": "0",
            "type": "t_string_storage"
          },
          {
            "astId": 39167,
            "contract": "contracts/vote.sol:PlatformVoting",
            "label": "options",
            "offset": 0,
            "slot": "1",
            "type": "t_array(t_string_storage)dyn_storage"
          },
          {
            "astId": 39171,
            "contract": "contracts/vote.sol:PlatformVoting",
            "label": "counts",
            "offset": 0,
            "slot": "2",
            "type": "t_array(t_userDefinedValueType(euint32)40194)dyn_storage"
          },
          {
            "astId": 39173,
            "contract": "contracts/vote.sol:PlatformVoting",
            "label": "totalVoted",
            "offset": 0,
            "slot": "3",
            "type": "t_uint256"
          },
          {
            "astId": 39175,
            "contract": "contracts/vote.sol:PlatformVoting",
            "label": "memberCountSnapshot",
            "offset": 0,
            "slot": "4",
            "type": "t_uint256"
          },
          {
            "astId": 39177,
            "contract": "contracts/vote.sol:PlatformVoting",
            "label": "finalized",
            "offset": 0,
            "slot": "5",
            "type": "t_bool"
          },
          {
            "astId": 39181,
            "contract": "contracts/vote.sol:PlatformVoting",
            "label": "hasVoted",
            "offset": 0,
            "slot": "6",
            "type": "t_mapping(t_address,t_bool)"
          }
        ],
        "numberOfBytes": "224"
      },
      "t_uint256": {
        "encoding": "inplace",
        "label": "uint256",
        "numberOfBytes": "32"
      },
      "t_userDefinedValueType(euint32)40194": {
        "encoding": "inplace",
        "label": "euint32",
        "numberOfBytes": "32"
      }
    }
  }
}